{
  "_format": "hh-sol-artifact-1",
  "contractName": "TAPERAJUNGLE",
  "sourceName": "contracts/TAPERAJUNGLE .sol",
  "abi": [
    {
      "inputs": [
        {
          "internalType": "string",
          "name": "name_",
          "type": "string"
        },
        {
          "internalType": "string",
          "name": "symbol_",
          "type": "string"
        }
      ],
      "stateMutability": "nonpayable",
      "type": "constructor"
    },
    {
      "anonymous": false,
      "inputs": [
        {
          "indexed": true,
          "internalType": "address",
          "name": "owner",
          "type": "address"
        },
        {
          "indexed": true,
          "internalType": "address",
          "name": "approved",
          "type": "address"
        },
        {
          "indexed": true,
          "internalType": "uint256",
          "name": "tokenId",
          "type": "uint256"
        }
      ],
      "name": "Approval",
      "type": "event"
    },
    {
      "anonymous": false,
      "inputs": [
        {
          "indexed": true,
          "internalType": "address",
          "name": "owner",
          "type": "address"
        },
        {
          "indexed": true,
          "internalType": "address",
          "name": "operator",
          "type": "address"
        },
        {
          "indexed": false,
          "internalType": "bool",
          "name": "approved",
          "type": "bool"
        }
      ],
      "name": "ApprovalForAll",
      "type": "event"
    },
    {
      "anonymous": false,
      "inputs": [
        {
          "indexed": true,
          "internalType": "address",
          "name": "previousOwner",
          "type": "address"
        },
        {
          "indexed": true,
          "internalType": "address",
          "name": "newOwner",
          "type": "address"
        }
      ],
      "name": "OwnershipTransferred",
      "type": "event"
    },
    {
      "anonymous": false,
      "inputs": [
        {
          "indexed": false,
          "internalType": "address",
          "name": "account",
          "type": "address"
        }
      ],
      "name": "Paused",
      "type": "event"
    },
    {
      "anonymous": false,
      "inputs": [
        {
          "indexed": true,
          "internalType": "address",
          "name": "from",
          "type": "address"
        },
        {
          "indexed": true,
          "internalType": "address",
          "name": "to",
          "type": "address"
        },
        {
          "indexed": true,
          "internalType": "uint256",
          "name": "tokenId",
          "type": "uint256"
        }
      ],
      "name": "Transfer",
      "type": "event"
    },
    {
      "anonymous": false,
      "inputs": [
        {
          "indexed": false,
          "internalType": "address",
          "name": "account",
          "type": "address"
        }
      ],
      "name": "Unpaused",
      "type": "event"
    },
    {
      "inputs": [],
      "name": "MAX_SUPPLY",
      "outputs": [
        {
          "internalType": "uint256",
          "name": "",
          "type": "uint256"
        }
      ],
      "stateMutability": "view",
      "type": "function"
    },
    {
      "inputs": [
        {
          "internalType": "address",
          "name": "to",
          "type": "address"
        },
        {
          "internalType": "uint256",
          "name": "tokenId",
          "type": "uint256"
        }
      ],
      "name": "approve",
      "outputs": [],
      "stateMutability": "nonpayable",
      "type": "function"
    },
    {
      "inputs": [
        {
          "internalType": "address",
          "name": "owner",
          "type": "address"
        }
      ],
      "name": "balanceOf",
      "outputs": [
        {
          "internalType": "uint256",
          "name": "",
          "type": "uint256"
        }
      ],
      "stateMutability": "view",
      "type": "function"
    },
    {
      "inputs": [
        {
          "internalType": "uint256",
          "name": "tokenId",
          "type": "uint256"
        }
      ],
      "name": "getApproved",
      "outputs": [
        {
          "internalType": "address",
          "name": "",
          "type": "address"
        }
      ],
      "stateMutability": "view",
      "type": "function"
    },
    {
      "inputs": [
        {
          "internalType": "address",
          "name": "owner",
          "type": "address"
        },
        {
          "internalType": "address",
          "name": "operator",
          "type": "address"
        }
      ],
      "name": "isApprovedForAll",
      "outputs": [
        {
          "internalType": "bool",
          "name": "",
          "type": "bool"
        }
      ],
      "stateMutability": "view",
      "type": "function"
    },
    {
      "inputs": [
        {
          "internalType": "address",
          "name": "to",
          "type": "address"
        },
        {
          "internalType": "uint256",
          "name": "nftAmount",
          "type": "uint256"
        }
      ],
      "name": "mint",
      "outputs": [],
      "stateMutability": "payable",
      "type": "function"
    },
    {
      "inputs": [],
      "name": "mintFee",
      "outputs": [
        {
          "internalType": "uint256",
          "name": "",
          "type": "uint256"
        }
      ],
      "stateMutability": "view",
      "type": "function"
    },
    {
      "inputs": [],
      "name": "name",
      "outputs": [
        {
          "internalType": "string",
          "name": "",
          "type": "string"
        }
      ],
      "stateMutability": "view",
      "type": "function"
    },
    {
      "inputs": [],
      "name": "owner",
      "outputs": [
        {
          "internalType": "address",
          "name": "",
          "type": "address"
        }
      ],
      "stateMutability": "view",
      "type": "function"
    },
    {
      "inputs": [
        {
          "internalType": "uint256",
          "name": "tokenId",
          "type": "uint256"
        }
      ],
      "name": "ownerOf",
      "outputs": [
        {
          "internalType": "address",
          "name": "",
          "type": "address"
        }
      ],
      "stateMutability": "view",
      "type": "function"
    },
    {
      "inputs": [],
      "name": "pause",
      "outputs": [],
      "stateMutability": "nonpayable",
      "type": "function"
    },
    {
      "inputs": [],
      "name": "paused",
      "outputs": [
        {
          "internalType": "bool",
          "name": "",
          "type": "bool"
        }
      ],
      "stateMutability": "view",
      "type": "function"
    },
    {
      "inputs": [],
      "name": "renounceOwnership",
      "outputs": [],
      "stateMutability": "nonpayable",
      "type": "function"
    },
    {
      "inputs": [
        {
          "internalType": "address",
          "name": "from",
          "type": "address"
        },
        {
          "internalType": "address",
          "name": "to",
          "type": "address"
        },
        {
          "internalType": "uint256",
          "name": "tokenId",
          "type": "uint256"
        }
      ],
      "name": "safeTransferFrom",
      "outputs": [],
      "stateMutability": "nonpayable",
      "type": "function"
    },
    {
      "inputs": [
        {
          "internalType": "address",
          "name": "from",
          "type": "address"
        },
        {
          "internalType": "address",
          "name": "to",
          "type": "address"
        },
        {
          "internalType": "uint256",
          "name": "tokenId",
          "type": "uint256"
        },
        {
          "internalType": "bytes",
          "name": "data",
          "type": "bytes"
        }
      ],
      "name": "safeTransferFrom",
      "outputs": [],
      "stateMutability": "nonpayable",
      "type": "function"
    },
    {
      "inputs": [
        {
          "internalType": "address",
          "name": "operator",
          "type": "address"
        },
        {
          "internalType": "bool",
          "name": "approved",
          "type": "bool"
        }
      ],
      "name": "setApprovalForAll",
      "outputs": [],
      "stateMutability": "nonpayable",
      "type": "function"
    },
    {
      "inputs": [
        {
          "internalType": "string",
          "name": "baseURI",
          "type": "string"
        }
      ],
      "name": "setBaseURI",
      "outputs": [],
      "stateMutability": "nonpayable",
      "type": "function"
    },
    {
      "inputs": [
        {
          "internalType": "uint256",
          "name": "fee",
          "type": "uint256"
        }
      ],
      "name": "setMintFee",
      "outputs": [],
      "stateMutability": "nonpayable",
      "type": "function"
    },
    {
      "inputs": [
        {
          "internalType": "bytes4",
          "name": "interfaceId",
          "type": "bytes4"
        }
      ],
      "name": "supportsInterface",
      "outputs": [
        {
          "internalType": "bool",
          "name": "",
          "type": "bool"
        }
      ],
      "stateMutability": "view",
      "type": "function"
    },
    {
      "inputs": [],
      "name": "symbol",
      "outputs": [
        {
          "internalType": "string",
          "name": "",
          "type": "string"
        }
      ],
      "stateMutability": "view",
      "type": "function"
    },
    {
      "inputs": [
        {
          "internalType": "uint256",
          "name": "tokenId",
          "type": "uint256"
        }
      ],
      "name": "tokenURI",
      "outputs": [
        {
          "internalType": "string",
          "name": "",
          "type": "string"
        }
      ],
      "stateMutability": "view",
      "type": "function"
    },
    {
      "inputs": [],
      "name": "totalSupply",
      "outputs": [
        {
          "internalType": "uint256",
          "name": "",
          "type": "uint256"
        }
      ],
      "stateMutability": "view",
      "type": "function"
    },
    {
      "inputs": [
        {
          "internalType": "address",
          "name": "from",
          "type": "address"
        },
        {
          "internalType": "address",
          "name": "to",
          "type": "address"
        },
        {
          "internalType": "uint256",
          "name": "tokenId",
          "type": "uint256"
        }
      ],
      "name": "transferFrom",
      "outputs": [],
      "stateMutability": "nonpayable",
      "type": "function"
    },
    {
      "inputs": [
        {
          "internalType": "address",
          "name": "newOwner",
          "type": "address"
        }
      ],
      "name": "transferOwnership",
      "outputs": [],
      "stateMutability": "nonpayable",
      "type": "function"
    },
    {
      "inputs": [],
      "name": "unpause",
      "outputs": [],
      "stateMutability": "nonpayable",
      "type": "function"
    },
    {
      "inputs": [
        {
          "internalType": "address",
          "name": "to",
          "type": "address"
        }
      ],
      "name": "withdrawEth",
      "outputs": [],
      "stateMutability": "nonpayable",
      "type": "function"
    }
  ],
  "bytecode": "0x60a0604052611f406080523480156200001757600080fd5b5060405162001fae38038062001fae8339810160408190526200003a9162000240565b81518290829062000053906000906020850190620000e3565b50805162000069906001906020840190620000e3565b50506006805460ff1916905550620000813362000089565b5050620002fd565b600680546001600160a01b03838116610100818102610100600160a81b031985161790945560405193909204169182907f8be0079c531659141344cd1fd0a4f28419497f9722a3daafe3b4186f6b6457e090600090a35050565b828054620000f190620002aa565b90600052602060002090601f01602090048101928262000115576000855562000160565b82601f106200013057805160ff191683800117855562000160565b8280016001018555821562000160579182015b828111156200016057825182559160200191906001019062000143565b506200016e92915062000172565b5090565b5b808211156200016e576000815560010162000173565b600082601f8301126200019b57600080fd5b81516001600160401b0380821115620001b857620001b8620002e7565b604051601f8301601f19908116603f01168101908282118183101715620001e357620001e3620002e7565b816040528381526020925086838588010111156200020057600080fd5b600091505b8382101562000224578582018301518183018401529082019062000205565b83821115620002365760008385830101525b9695505050505050565b600080604083850312156200025457600080fd5b82516001600160401b03808211156200026c57600080fd5b6200027a8683870162000189565b935060208501519150808211156200029157600080fd5b50620002a08582860162000189565b9150509250929050565b600181811c90821680620002bf57607f821691505b60208210811415620002e157634e487b7160e01b600052602260045260246000fd5b50919050565b634e487b7160e01b600052604160045260246000fd5b608051611c8e62000320600039600081816102c201526108000152611c8e6000f3fe6080604052600436106101815760003560e01c80635c975abb116100d157806395d89b411161008a578063c87b56dd11610064578063c87b56dd14610446578063e985e9c514610466578063eddd0d9c146104af578063f2fde38b146104cf57600080fd5b806395d89b41146103f1578063a22cb46514610406578063b88d4fde1461042657600080fd5b80635c975abb1461034c5780636352211e1461036457806370a0823114610384578063715018a6146103a45780638456cb59146103b95780638da5cb5b146103ce57600080fd5b806323b872dd1161013e5780633f4ba83a116101185780633f4ba83a146102e457806340c10f19146102f957806342842e0e1461030c57806355f804b31461032c57600080fd5b806323b872dd1461027057806325e160631461029057806332cb6b0c146102b057600080fd5b806301ffc9a71461018657806306fdde03146101bb578063081812fc146101dd578063095ea7b31461021557806313966db51461023757806318160ddd1461025b575b600080fd5b34801561019257600080fd5b506101a66101a136600461191b565b6104ef565b60405190151581526020015b60405180910390f35b3480156101c757600080fd5b506101d0610541565b6040516101b29190611a4f565b3480156101e957600080fd5b506101fd6101f836600461199e565b6105d3565b6040516001600160a01b0390911681526020016101b2565b34801561022157600080fd5b506102356102303660046118f1565b6105fa565b005b34801561024357600080fd5b5061024d60085481565b6040519081526020016101b2565b34801561026757600080fd5b5061024d610715565b34801561027c57600080fd5b5061023561028b3660046117fd565b610725565b34801561029c57600080fd5b506102356102ab3660046117af565b610756565b3480156102bc57600080fd5b5061024d7f000000000000000000000000000000000000000000000000000000000000000081565b3480156102f057600080fd5b506102356107dc565b6102356103073660046118f1565b6107f6565b34801561031857600080fd5b506102356103273660046117fd565b610901565b34801561033857600080fd5b50610235610347366004611955565b61091c565b34801561035857600080fd5b5060065460ff166101a6565b34801561037057600080fd5b506101fd61037f36600461199e565b610979565b34801561039057600080fd5b5061024d61039f3660046117af565b6109d9565b3480156103b057600080fd5b50610235610a5f565b3480156103c557600080fd5b50610235610a71565b3480156103da57600080fd5b5060065461010090046001600160a01b03166101fd565b3480156103fd57600080fd5b506101d0610a89565b34801561041257600080fd5b506102356104213660046118b5565b610a98565b34801561043257600080fd5b50610235610441366004611839565b610aa3565b34801561045257600080fd5b506101d061046136600461199e565b610adb565b34801561047257600080fd5b506101a66104813660046117ca565b6001600160a01b03918216600090815260056020908152604080832093909416825291909152205460ff1690565b3480156104bb57600080fd5b506102356104ca36600461199e565b610b42565b3480156104db57600080fd5b506102356104ea3660046117af565b610b4f565b60006001600160e01b031982166380ac58cd60e01b148061052057506001600160e01b03198216635b5e139f60e01b145b8061053b57506301ffc9a760e01b6001600160e01b03198316145b92915050565b60606000805461055090611bc0565b80601f016020809104026020016040519081016040528092919081815260200182805461057c90611bc0565b80156105c95780601f1061059e576101008083540402835291602001916105c9565b820191906000526020600020905b8154815290600101906020018083116105ac57829003601f168201915b5050505050905090565b60006105de82610bc8565b506000908152600460205260409020546001600160a01b031690565b600061060582610979565b9050806001600160a01b0316836001600160a01b031614156106785760405162461bcd60e51b815260206004820152602160248201527f4552433732313a20617070726f76616c20746f2063757272656e74206f776e656044820152603960f91b60648201526084015b60405180910390fd5b336001600160a01b038216148061069457506106948133610481565b6107065760405162461bcd60e51b815260206004820152603d60248201527f4552433732313a20617070726f76652063616c6c6572206973206e6f7420746f60448201527f6b656e206f776e6572206f7220617070726f76656420666f7220616c6c000000606482015260840161066f565b6107108383610c27565b505050565b600061072060075490565b905090565b61072f3382610c95565b61074b5760405162461bcd60e51b815260040161066f90611a62565b610710838383610d14565b61075e610e85565b6001600160a01b0381166107a35760405162461bcd60e51b815260206004820152600c60248201526b7a65726f206164647265737360a01b604482015260640161066f565b6040516001600160a01b038216904780156108fc02916000818181858888f193505050501580156107d8573d6000803e3d6000fd5b5050565b6107e4610ee5565b6107ec610e85565b6107f4610f2e565b565b6107fe610f80565b7f00000000000000000000000000000000000000000000000000000000000000008161082960075490565b6108339190611b46565b11156108755760405162461bcd60e51b815260206004820152601160248201527013585e081b1a5b5a5d081c995858da1959607a1b604482015260640161066f565b806008546108839190611b5e565b34146108c45760405162461bcd60e51b815260206004820152601060248201526f496e76616c6964206d696e742066656560801b604482015260640161066f565b60005b81811015610710576108dd600780546001019055565b6108ef836108ea60075490565b610fc6565b806108f981611bfb565b9150506108c7565b61071083838360405180602001604052806000815250610aa3565b610924610e85565b60008151116109665760405162461bcd60e51b815260206004820152600e60248201526d10d85b9b9bdd081899481b9d5b1b60921b604482015260640161066f565b80516107d8906009906020840190611684565b6000818152600260205260408120546001600160a01b03168061053b5760405162461bcd60e51b8152602060048201526018602482015277115490cdcc8c4e881a5b9d985b1a59081d1bdad95b88125160421b604482015260640161066f565b60006001600160a01b038216610a435760405162461bcd60e51b815260206004820152602960248201527f4552433732313a2061646472657373207a65726f206973206e6f7420612076616044820152683634b21037bbb732b960b91b606482015260840161066f565b506001600160a01b031660009081526003602052604090205490565b610a67610e85565b6107f4600061115f565b610a79610f80565b610a81610e85565b6107f46111b9565b60606001805461055090611bc0565b6107d83383836111f6565b610aad3383610c95565b610ac95760405162461bcd60e51b815260040161066f90611a62565b610ad5848484846112c5565b50505050565b6060610ae682610bc8565b6000610af06112f8565b90506000815111610b105760405180602001604052806000815250610b3b565b80610b1a84611307565b604051602001610b2b9291906119e3565b6040516020818303038152906040525b9392505050565b610b4a610e85565b600855565b610b57610e85565b6001600160a01b038116610bbc5760405162461bcd60e51b815260206004820152602660248201527f4f776e61626c653a206e6577206f776e657220697320746865207a65726f206160448201526564647265737360d01b606482015260840161066f565b610bc58161115f565b50565b6000818152600260205260409020546001600160a01b0316610bc55760405162461bcd60e51b8152602060048201526018602482015277115490cdcc8c4e881a5b9d985b1a59081d1bdad95b88125160421b604482015260640161066f565b600081815260046020526040902080546001600160a01b0319166001600160a01b0384169081179091558190610c5c82610979565b6001600160a01b03167f8c5be1e5ebec7d5bd14f71427d1e84f3dd0314c0f7b2291e5b200ac8c7c3b92560405160405180910390a45050565b600080610ca183610979565b9050806001600160a01b0316846001600160a01b03161480610ce857506001600160a01b0380821660009081526005602090815260408083209388168352929052205460ff165b80610d0c5750836001600160a01b0316610d01846105d3565b6001600160a01b0316145b949350505050565b826001600160a01b0316610d2782610979565b6001600160a01b031614610d4d5760405162461bcd60e51b815260040161066f90611b01565b6001600160a01b038216610daf5760405162461bcd60e51b8152602060048201526024808201527f4552433732313a207472616e7366657220746f20746865207a65726f206164646044820152637265737360e01b606482015260840161066f565b610dbc83838360016113a4565b826001600160a01b0316610dcf82610979565b6001600160a01b031614610df55760405162461bcd60e51b815260040161066f90611b01565b600081815260046020908152604080832080546001600160a01b03199081169091556001600160a01b0387811680865260038552838620805460001901905590871680865283862080546001019055868652600290945282852080549092168417909155905184937fddf252ad1be2c89b69c2b068fc378daa952ba7f163c4a11628f55a4df523b3ef91a4505050565b6006546001600160a01b036101009091041633146107f45760405162461bcd60e51b815260206004820181905260248201527f4f776e61626c653a2063616c6c6572206973206e6f7420746865206f776e6572604482015260640161066f565b60065460ff166107f45760405162461bcd60e51b815260206004820152601460248201527314185d5cd8589b194e881b9bdd081c185d5cd95960621b604482015260640161066f565b610f36610ee5565b6006805460ff191690557f5db9ee0a495bf2e6ff9c91a7834c1ba4fdd244a5e8aa4e537bd38aeae4b073aa335b6040516001600160a01b03909116815260200160405180910390a1565b60065460ff16156107f45760405162461bcd60e51b815260206004820152601060248201526f14185d5cd8589b194e881c185d5cd95960821b604482015260640161066f565b6001600160a01b03821661101c5760405162461bcd60e51b815260206004820181905260248201527f4552433732313a206d696e7420746f20746865207a65726f2061646472657373604482015260640161066f565b6000818152600260205260409020546001600160a01b0316156110815760405162461bcd60e51b815260206004820152601c60248201527f4552433732313a20746f6b656e20616c7265616479206d696e74656400000000604482015260640161066f565b61108f6000838360016113a4565b6000818152600260205260409020546001600160a01b0316156110f45760405162461bcd60e51b815260206004820152601c60248201527f4552433732313a20746f6b656e20616c7265616479206d696e74656400000000604482015260640161066f565b6001600160a01b038216600081815260036020908152604080832080546001019055848352600290915280822080546001600160a01b0319168417905551839291907fddf252ad1be2c89b69c2b068fc378daa952ba7f163c4a11628f55a4df523b3ef908290a45050565b600680546001600160a01b03838116610100818102610100600160a81b031985161790945560405193909204169182907f8be0079c531659141344cd1fd0a4f28419497f9722a3daafe3b4186f6b6457e090600090a35050565b6111c1610f80565b6006805460ff191660011790557f62e78cea01bee320cd4e420270b5ea74000d11b0c9f74754ebdbfc544b05a258610f633390565b816001600160a01b0316836001600160a01b031614156112585760405162461bcd60e51b815260206004820152601960248201527f4552433732313a20617070726f766520746f2063616c6c657200000000000000604482015260640161066f565b6001600160a01b03838116600081815260056020908152604080832094871680845294825291829020805460ff191686151590811790915591519182527f17307eab39ab6107e8899845ad3d59bd9653f200f220920489ca2b5937696c31910160405180910390a3505050565b6112d0848484610d14565b6112dc84848484611417565b610ad55760405162461bcd60e51b815260040161066f90611aaf565b60606009805461055090611bc0565b6060600061131483611524565b600101905060008167ffffffffffffffff81111561133457611334611c2c565b6040519080825280601f01601f19166020018201604052801561135e576020820181803683370190505b5090508181016020015b600019016f181899199a1a9b1b9c1cb0b131b232b360811b600a86061a8153600a85049450846113975761139c565b611368565b509392505050565b6113b0848484846115fc565b60065460ff1615610ad55760405162461bcd60e51b815260206004820152602b60248201527f4552433732315061757361626c653a20746f6b656e207472616e73666572207760448201526a1a1a5b19481c185d5cd95960aa1b606482015260840161066f565b60006001600160a01b0384163b1561151957604051630a85bd0160e11b81526001600160a01b0385169063150b7a029061145b903390899088908890600401611a12565b602060405180830381600087803b15801561147557600080fd5b505af19250505080156114a5575060408051601f3d908101601f191682019092526114a291810190611938565b60015b6114ff573d8080156114d3576040519150601f19603f3d011682016040523d82523d6000602084013e6114d8565b606091505b5080516114f75760405162461bcd60e51b815260040161066f90611aaf565b805181602001fd5b6001600160e01b031916630a85bd0160e11b149050610d0c565b506001949350505050565b60008072184f03e93ff9f4daa797ed6e38ed64bf6a1f0160401b83106115635772184f03e93ff9f4daa797ed6e38ed64bf6a1f0160401b830492506040015b6d04ee2d6d415b85acef8100000000831061158f576d04ee2d6d415b85acef8100000000830492506020015b662386f26fc1000083106115ad57662386f26fc10000830492506010015b6305f5e10083106115c5576305f5e100830492506008015b61271083106115d957612710830492506004015b606483106115eb576064830492506002015b600a831061053b5760010192915050565b6001811115610ad5576001600160a01b03841615611642576001600160a01b0384166000908152600360205260408120805483929061163c908490611b7d565b90915550505b6001600160a01b03831615610ad5576001600160a01b03831660009081526003602052604081208054839290611679908490611b46565b909155505050505050565b82805461169090611bc0565b90600052602060002090601f0160209004810192826116b257600085556116f8565b82601f106116cb57805160ff19168380011785556116f8565b828001600101855582156116f8579182015b828111156116f85782518255916020019190600101906116dd565b50611704929150611708565b5090565b5b808211156117045760008155600101611709565b600067ffffffffffffffff8084111561173857611738611c2c565b604051601f8501601f19908116603f0116810190828211818310171561176057611760611c2c565b8160405280935085815286868601111561177957600080fd5b858560208301376000602087830101525050509392505050565b80356001600160a01b03811681146117aa57600080fd5b919050565b6000602082840312156117c157600080fd5b610b3b82611793565b600080604083850312156117dd57600080fd5b6117e683611793565b91506117f460208401611793565b90509250929050565b60008060006060848603121561181257600080fd5b61181b84611793565b925061182960208501611793565b9150604084013590509250925092565b6000806000806080858703121561184f57600080fd5b61185885611793565b935061186660208601611793565b925060408501359150606085013567ffffffffffffffff81111561188957600080fd5b8501601f8101871361189a57600080fd5b6118a98782356020840161171d565b91505092959194509250565b600080604083850312156118c857600080fd5b6118d183611793565b9150602083013580151581146118e657600080fd5b809150509250929050565b6000806040838503121561190457600080fd5b61190d83611793565b946020939093013593505050565b60006020828403121561192d57600080fd5b8135610b3b81611c42565b60006020828403121561194a57600080fd5b8151610b3b81611c42565b60006020828403121561196757600080fd5b813567ffffffffffffffff81111561197e57600080fd5b8201601f8101841361198f57600080fd5b610d0c8482356020840161171d565b6000602082840312156119b057600080fd5b5035919050565b600081518084526119cf816020860160208601611b94565b601f01601f19169290920160200192915050565b600083516119f5818460208801611b94565b835190830190611a09818360208801611b94565b01949350505050565b6001600160a01b0385811682528416602082015260408101839052608060608201819052600090611a45908301846119b7565b9695505050505050565b602081526000610b3b60208301846119b7565b6020808252602d908201527f4552433732313a2063616c6c6572206973206e6f7420746f6b656e206f776e6560408201526c1c881bdc88185c1c1c9bdd9959609a1b606082015260800190565b60208082526032908201527f4552433732313a207472616e7366657220746f206e6f6e20455243373231526560408201527131b2b4bb32b91034b6b83632b6b2b73a32b960711b606082015260800190565b60208082526025908201527f4552433732313a207472616e736665722066726f6d20696e636f72726563742060408201526437bbb732b960d91b606082015260800190565b60008219821115611b5957611b59611c16565b500190565b6000816000190483118215151615611b7857611b78611c16565b500290565b600082821015611b8f57611b8f611c16565b500390565b60005b83811015611baf578181015183820152602001611b97565b83811115610ad55750506000910152565b600181811c90821680611bd457607f821691505b60208210811415611bf557634e487b7160e01b600052602260045260246000fd5b50919050565b6000600019821415611c0f57611c0f611c16565b5060010190565b634e487b7160e01b600052601160045260246000fd5b634e487b7160e01b600052604160045260246000fd5b6001600160e01b031981168114610bc557600080fdfea264697066735822122028248844cffdc95cfc27a1896f9c0383f4a7c5cf2f377dcb9f4b4331a01e479064736f6c63430008050033",
  "linkReferences": {},
  "deployedLinkReferences": {}
}